{
  "contractName": "JurStatus",
  "abi": [
    {
      "inputs": [],
      "payable": false,
      "stateMutability": "nonpayable",
      "type": "constructor"
    },
    {
      "anonymous": false,
      "inputs": [
        {
          "indexed": false,
          "internalType": "uint256",
          "name": "timestamp",
          "type": "uint256"
        },
        {
          "indexed": false,
          "internalType": "address",
          "name": "statusHolder",
          "type": "address"
        },
        {
          "indexed": false,
          "internalType": "bool",
          "name": "newState",
          "type": "bool"
        },
        {
          "indexed": false,
          "internalType": "string",
          "name": "notification",
          "type": "string"
        }
      ],
      "name": "TriggerStateChanged",
      "type": "event"
    },
    {
      "anonymous": false,
      "inputs": [
        {
          "indexed": false,
          "internalType": "uint256",
          "name": "timestamp",
          "type": "uint256"
        },
        {
          "indexed": false,
          "internalType": "address",
          "name": "statusHolder",
          "type": "address"
        },
        {
          "indexed": false,
          "internalType": "uint256",
          "name": "position",
          "type": "uint256"
        },
        {
          "indexed": false,
          "internalType": "string",
          "name": "notification",
          "type": "string"
        }
      ],
      "name": "TriggerStatusAdded",
      "type": "event"
    },
    {
      "anonymous": false,
      "inputs": [
        {
          "indexed": false,
          "internalType": "uint256",
          "name": "timestamp",
          "type": "uint256"
        },
        {
          "indexed": false,
          "internalType": "bytes32",
          "name": "statusType",
          "type": "bytes32"
        },
        {
          "indexed": false,
          "internalType": "string",
          "name": "notification",
          "type": "string"
        }
      ],
      "name": "TriggerStatusTypeAdded",
      "type": "event"
    },
    {
      "constant": true,
      "inputs": [
        {
          "internalType": "address",
          "name": "",
          "type": "address"
        }
      ],
      "name": "status",
      "outputs": [
        {
          "internalType": "uint256",
          "name": "timestamp",
          "type": "uint256"
        },
        {
          "internalType": "bool",
          "name": "active",
          "type": "bool"
        },
        {
          "internalType": "bytes32",
          "name": "statusType",
          "type": "bytes32"
        }
      ],
      "payable": false,
      "stateMutability": "view",
      "type": "function"
    },
    {
      "constant": true,
      "inputs": [
        {
          "internalType": "uint256",
          "name": "",
          "type": "uint256"
        }
      ],
      "name": "statusTypes",
      "outputs": [
        {
          "internalType": "bytes32",
          "name": "name",
          "type": "bytes32"
        }
      ],
      "payable": false,
      "stateMutability": "view",
      "type": "function"
    },
    {
      "constant": false,
      "inputs": [
        {
          "internalType": "address",
          "name": "_statusHolder",
          "type": "address"
        },
        {
          "internalType": "uint256",
          "name": "_position",
          "type": "uint256"
        }
      ],
      "name": "addStatus",
      "outputs": [],
      "payable": false,
      "stateMutability": "nonpayable",
      "type": "function"
    },
    {
      "constant": false,
      "inputs": [
        {
          "internalType": "address",
          "name": "_statusHolder",
          "type": "address"
        },
        {
          "internalType": "bool",
          "name": "_newState",
          "type": "bool"
        }
      ],
      "name": "changeState",
      "outputs": [],
      "payable": false,
      "stateMutability": "nonpayable",
      "type": "function"
    },
    {
      "constant": false,
      "inputs": [
        {
          "internalType": "bytes32",
          "name": "_statusType",
          "type": "bytes32"
        }
      ],
      "name": "addStatusType",
      "outputs": [],
      "payable": false,
      "stateMutability": "nonpayable",
      "type": "function"
    }
  ],
  "bytecode": "0x608060405234801561001057600080fd5b50600080546001600160a01b03191633179055610615806100326000396000f3fe608060405234801561001057600080fd5b50600436106100575760003560e01c80630d062d331461005c5780636185e6b41461008c578063645b8b1b146100b8578063a74fc621146100fc578063eccc2cba14610119575b600080fd5b61008a6004803603604081101561007257600080fd5b506001600160a01b0381351690602001351515610148565b005b61008a600480360360408110156100a257600080fd5b506001600160a01b03813516906020013561030d565b6100de600480360360208110156100ce57600080fd5b50356001600160a01b031661049d565b60408051938452911515602084015282820152519081900360600190f35b61008a6004803603602081101561011257600080fd5b50356104c3565b6101366004803603602081101561012f57600080fd5b50356105c2565b60408051918252519081900360200190f35b6000546001600160a01b0316331461019d576040805162461bcd60e51b815260206004820152601360248201527220b1b1b2b9b9903737ba1033b930b73a32b21760691b604482015290519081900360640190fd5b6001600160a01b0382166101f8576040805162461bcd60e51b815260206004820152601f60248201527f506c656173652070726f7669646520612076616c696420616464726573732e00604482015290519081900360640190fd5b6001600160a01b0382166000908152600160208190526040909120015460ff1615158115151415610270576040805162461bcd60e51b815260206004820152601a60248201527f416c726561647920696e207468652073616d652073746174652e000000000000604482015290519081900360640190fd5b6001600160a01b038216600081815260016020818152604092839020909101805485151560ff19909116811790915582514281529182019390935280820192909252608060608301819052601490830152731058dd1a5d99481cdd185d194818da185b99d95960621b60a0830152517f15d61edba82d904b043c31374ab762f8f7eaef4e86e0258f751aeb07201ff46d9181900360c00190a15050565b6000546001600160a01b03163314610362576040805162461bcd60e51b815260206004820152601360248201527220b1b1b2b9b9903737ba1033b930b73a32b21760691b604482015290519081900360640190fd5b6001600160a01b0382166103bd576040805162461bcd60e51b815260206004820152601f60248201527f506c656173652070726f7669646520612076616c696420616464726573732e00604482015290519081900360640190fd5b6040518060600160405280428152602001600115158152602001600283815481106103e457fe5b60009182526020808320909101549092526001600160a01b03851680825260018084526040928390208551815585850151918101805492151560ff199093169290921790915593820151600290940193909355805142815291820192909252808201839052608060608201819052600c908201526b14dd185d1d5cc8185919195960a21b60a082015290517f099a7c32dbceccafb974e46a6ef5ecda9d8d2738e99db06dbb1f077eb569d6409181900360c00190a15050565b600160208190526000918252604090912080549181015460029091015460ff9091169083565b6000546001600160a01b03163314610518576040805162461bcd60e51b815260206004820152601360248201527220b1b1b2b9b9903737ba1033b930b73a32b21760691b604482015290519081900360640190fd5b60408051602080820183528382526002805460018101825560009190915291517f405787fa12a823e0f2b7631cc41b3ba8828b3321ca811111fa75cd3aa3bb5ace90920191909155815142815290810183905260608183018190526011908201527014dd185d1d5cc81d1e5c19481859191959607a1b608082015290517fca5692f8d22b03a9cbfc3c66a1e2c3fcab81b1d9b04269c5a13161e451526f0f9181900360a00190a150565b600281815481106105cf57fe5b60009182526020909120015490508156fea265627a7a7231582085896f359f03c8a0b6073e199725ded522b8201d6019535d45cf1d852978c41164736f6c63430005100032",
  "source": "pragma solidity >=0.5.1 <0.7.0;\n\ncontract JurStatus {\n    // Represents a single status.\n    struct Status {\n      uint timestamp; // timestamp from which the status will be valid\n      bool active; // boolean state depicting if a status is currently active\n      bytes32 statusType; // the type of the status\n    }\n\n    // This is a type for a single status-type.\n    struct Type {\n      bytes32 name; // short name (up to 32 bytes)\n    }\n\n    address owner;\n\n    // This declares a state variable - status that\n    // stores a `Status` struct for each possible address.\n    mapping(address => Status) public status;\n\n    // A dynamically-sized array of `Type` structs.\n    Type[] public statusTypes;\n\n    event TriggerStatusTypeAdded(uint timestamp, bytes32 statusType, string notification);\n    event TriggerStateChanged(uint timestamp, address statusHolder, bool newState, string notification);\n    event TriggerStatusAdded(uint timestamp, address statusHolder, uint position, string notification);\n\n    modifier onlyOwner() {\n      require(msg.sender == owner, \"Access not granted.\");\n      _;\n    }\n\n    constructor()\n    public {\n      owner = msg.sender;\n    }\n\n    // @dev addStatus - function to let the admin add new address as struct Status\n    function addStatus(\n      address _statusHolder, // @param _statusHolder - The address which will hold the Jur Status.\n      uint _position // @param _position - The position of the value from the statusTypes array\n    ) public\n    onlyOwner {\n      require(_statusHolder != address(0), \"Please provide a valid address.\");\n      status[_statusHolder] = Status(now, true, statusTypes[_position].name);\n\n      emit TriggerStatusAdded(now, _statusHolder, _position, \"Status added\");\n    }\n\n    // @dev changeState - function to let the Jur admin change the state of a status.\n    function changeState(\n      address _statusHolder, // @param _statusHolder - The address holding the Jur Status.\n      bool _newState // @param _newState -  Boolean status to update.\n    ) public\n    onlyOwner {\n      require(_statusHolder != address(0), \"Please provide a valid address.\");\n      // Since `status` is a reference, this\n      // modifies `status[_statusHolder].active`\n      require(status[_statusHolder].active != _newState, \"Already in the same state.\");\n      status[_statusHolder].active = _newState;\n\n      emit TriggerStateChanged(now, _statusHolder, _newState, \"Active state changed\");\n    }\n\n    // @dev addStatusType - function to let an admin add status type\n    function addStatusType(\n      bytes32 _statusType // @param _statusType - The new status type.\n    ) public\n    onlyOwner {\n      // require(_statusType.length == 0, \"Status type cannot be an empty string.\");\n\n      // `Type({...})` creates a temporary\n      // Type object and `statusTypes.push(...)`\n      // appends it to the end of `statusTypes`.\n      statusTypes.push(Type(_statusType));\n\n      emit TriggerStatusTypeAdded(now, _statusType, \"Status type added\");\n    }\n}\n",
  "sourcePath": "/Users/gandharv/jur/jur-status-smart-contract-master/contracts/JurStatus.sol",
  "compiler": {
    "name": "solc",
    "version": "0.5.16+commit.9c3226ce.Emscripten.clang"
  },
  "schemaVersion": "3.0.23",
  "updatedAt": "2020-02-15T12:53:12.242Z",
  "networkType": "ethereum",
  "devdoc": {
    "methods": {}
  },
  "userdoc": {
    "methods": {}
  }
}