{
  "contractName": "JurStatus",
  "abi": [
    {
      "inputs": [],
      "payable": false,
      "stateMutability": "nonpayable",
      "type": "constructor"
    },
    {
      "anonymous": false,
      "inputs": [
        {
          "indexed": false,
          "internalType": "uint256",
          "name": "timestamp",
          "type": "uint256"
        },
        {
          "indexed": false,
          "internalType": "address",
          "name": "statusHolder",
          "type": "address"
        },
        {
          "indexed": false,
          "internalType": "bool",
          "name": "newState",
          "type": "bool"
        }
      ],
      "name": "StateChanged",
      "type": "event"
    },
    {
      "anonymous": false,
      "inputs": [
        {
          "indexed": false,
          "internalType": "uint256",
          "name": "timestamp",
          "type": "uint256"
        },
        {
          "indexed": false,
          "internalType": "address",
          "name": "statusHolder",
          "type": "address"
        },
        {
          "indexed": false,
          "internalType": "string",
          "name": "statusType",
          "type": "string"
        }
      ],
      "name": "StatusAdded",
      "type": "event"
    },
    {
      "anonymous": false,
      "inputs": [
        {
          "indexed": false,
          "internalType": "uint256",
          "name": "timestamp",
          "type": "uint256"
        },
        {
          "indexed": false,
          "internalType": "string[]",
          "name": "statusTypes",
          "type": "string[]"
        }
      ],
      "name": "StatusTypeAdded",
      "type": "event"
    },
    {
      "constant": true,
      "inputs": [
        {
          "internalType": "address",
          "name": "",
          "type": "address"
        }
      ],
      "name": "status",
      "outputs": [
        {
          "internalType": "uint256",
          "name": "timestamp",
          "type": "uint256"
        },
        {
          "internalType": "bool",
          "name": "active",
          "type": "bool"
        },
        {
          "internalType": "string",
          "name": "statusType",
          "type": "string"
        }
      ],
      "payable": false,
      "stateMutability": "view",
      "type": "function"
    },
    {
      "constant": true,
      "inputs": [
        {
          "internalType": "uint256",
          "name": "",
          "type": "uint256"
        }
      ],
      "name": "statusTypes",
      "outputs": [
        {
          "internalType": "string",
          "name": "",
          "type": "string"
        }
      ],
      "payable": false,
      "stateMutability": "view",
      "type": "function"
    },
    {
      "constant": false,
      "inputs": [
        {
          "internalType": "address",
          "name": "_statusHolder",
          "type": "address"
        },
        {
          "internalType": "uint256",
          "name": "_position",
          "type": "uint256"
        }
      ],
      "name": "addStatus",
      "outputs": [],
      "payable": false,
      "stateMutability": "nonpayable",
      "type": "function"
    },
    {
      "constant": false,
      "inputs": [
        {
          "internalType": "address",
          "name": "_statusHolder",
          "type": "address"
        },
        {
          "internalType": "bool",
          "name": "_newState",
          "type": "bool"
        }
      ],
      "name": "changeState",
      "outputs": [],
      "payable": false,
      "stateMutability": "nonpayable",
      "type": "function"
    },
    {
      "constant": false,
      "inputs": [
        {
          "internalType": "string",
          "name": "_statusType",
          "type": "string"
        }
      ],
      "name": "addStatusType",
      "outputs": [],
      "payable": false,
      "stateMutability": "nonpayable",
      "type": "function"
    }
  ],
  "bytecode": "0x608060405234801561001057600080fd5b50600080546001600160a01b03191633179055610c23806100326000396000f3fe608060405234801561001057600080fd5b50600436106100575760003560e01c80630d062d331461005c5780636185e6b414610071578063645b8b1b14610084578063b57bb11d146100af578063eccc2cba146100c2575b600080fd5b61006f61006a3660046106ed565b6100e2565b005b61006f61007f366004610727565b6101e4565b6100976100923660046106c7565b6103af565b6040516100a693929190610ab6565b60405180910390f35b61006f6100bd366004610757565b61045f565b6100d56100d036600461078c565b61050b565b6040516100a691906109e7565b6000546001600160a01b031633146101155760405162461bcd60e51b815260040161010c90610a18565b60405180910390fd5b6001600160a01b03821661013b5760405162461bcd60e51b815260040161010c90610a28565b6001600160a01b03821660009081526002602052604090206001015460ff161515811515141561017d5760405162461bcd60e51b815260040161010c90610a08565b6001600160a01b03821660009081526002602052604090819020600101805460ff1916831515179055517f13c90fcf39cf981d4758a76f8bef56b85a9ec364c39679ec630f7c7ee38a15fd906101d890429085908590610a38565b60405180910390a15050565b6000546001600160a01b0316331461020e5760405162461bcd60e51b815260040161010c90610a18565b6001600160a01b0382166102345760405162461bcd60e51b815260040161010c90610a28565b6001548110156102565760405162461bcd60e51b815260040161010c906109f8565b60405180606001604052804281526020016001151581526020016001838154811061027d57fe5b600091825260209182902001805460408051601f600260001961010060018716150201909416939093049283018590048502810185019091528181529283018282801561030b5780601f106102e05761010080835404028352916020019161030b565b820191906000526020600020905b8154815290600101906020018083116102ee57829003601f168201915b5050509190925250506001600160a01b038316600090815260026020818152604092839020845181558482015160018201805460ff19169115159190911790559284015180516103629385019291909101906105b1565b509050507f5d45cd4da9d4cf350f53c298c399b2a1215e4611c62b2138baca0512a5e7500442836001848154811061039657fe5b906000526020600020016040516101d893929190610a60565b600260208181526000928352604092839020805460018083015483860180548851601f60001995831615610100029590950190911697909704928301869004860287018601909752818652919560ff9092169492938301828280156104555780601f1061042a57610100808354040283529160200191610455565b820191906000526020600020905b81548152906001019060200180831161043857829003601f168201915b5050505050905083565b6000546001600160a01b031633146104895760405162461bcd60e51b815260040161010c90610a18565b6001805480820180835560009290925282516104cc917fb10e2d527612073b26eecdfd717e6a320cf44b4afac2b0732d9fcbe2b7fa0cf6019060208501906105b1565b50507f0ae82ea49ac92c5d3dcca7889353064e9d2ef21573a6b83ec8b974540585c53b426001604051610500929190610a96565b60405180910390a150565b6001818154811061051857fe5b600091825260209182902001805460408051601f60026000196101006001871615020190941693909304928301859004850281018501909152818152935090918301828280156105a95780601f1061057e576101008083540402835291602001916105a9565b820191906000526020600020905b81548152906001019060200180831161058c57829003601f168201915b505050505081565b828054600181600116156101000203166002900490600052602060002090601f016020900481019282601f106105f257805160ff191683800117855561061f565b8280016001018555821561061f579182015b8281111561061f578251825591602001919060010190610604565b5061062b92915061062f565b5090565b61064991905b8082111561062b5760008155600101610635565b90565b803561065781610bb7565b92915050565b803561065781610bce565b600082601f83011261067957600080fd5b813561068c61068782610b0a565b610ae3565b915080825260208301602083018583830111156106a857600080fd5b6106b3838284610b71565b50505092915050565b803561065781610bd7565b6000602082840312156106d957600080fd5b60006106e5848461064c565b949350505050565b6000806040838503121561070057600080fd5b600061070c858561064c565b925050602061071d8582860161065d565b9150509250929050565b6000806040838503121561073a57600080fd5b6000610746858561064c565b925050602061071d858286016106bc565b60006020828403121561076957600080fd5b813567ffffffffffffffff81111561078057600080fd5b6106e584828501610668565b60006020828403121561079e57600080fd5b60006106e584846106bc565b60006107b6838361087a565b9392505050565b6107c681610b55565b82525050565b60006107d782610b3e565b6107e18185610b4c565b9350836020820285016107f385610b32565b8060005b8581101561082c5784840389528161080f85826107aa565b945061081a83610b46565b60209a909a01999250506001016107f7565b5091979650505050505050565b6107c681610b60565b600061084d82610b42565b6108578185610b4c565b9350610867818560208601610b7d565b61087081610bad565b9093019392505050565b60008154600181166000811461089757600181146108bd576108fc565b607f60028304166108a88187610b4c565b60ff19841681529550506020850192506108fc565b600282046108cb8187610b4c565b95506108d685610b32565b60005b828110156108f5578154888201526001909101906020016108d9565b8701945050505b505092915050565b6000610911601883610b4c565b7f506f736974696f6e20646f6573206e6f742065786973742e0000000000000000815260200192915050565b600061094a601a83610b4c565b7f416c726561647920696e207468652073616d652073746174652e000000000000815260200192915050565b6000610983601383610b4c565b7220b1b1b2b9b9903737ba1033b930b73a32b21760691b815260200192915050565b60006109b2601f83610b4c565b7f506c656173652070726f7669646520612076616c696420616464726573732e00815260200192915050565b6107c681610649565b602080825281016107b68184610842565b6020808252810161065781610904565b602080825281016106578161093d565b6020808252810161065781610976565b60208082528101610657816109a5565b60608101610a4682866109de565b610a5360208301856107bd565b6106e56040830184610839565b60608101610a6e82866109de565b610a7b60208301856107bd565b8181036040830152610a8d818461087a565b95945050505050565b60408101610aa482856109de565b81810360208301526106e581846107cc565b60608101610ac482866109de565b610ad16020830185610839565b8181036040830152610a8d8184610842565b60405181810167ffffffffffffffff81118282101715610b0257600080fd5b604052919050565b600067ffffffffffffffff821115610b2157600080fd5b506020601f91909101601f19160190565b60009081526020902090565b5490565b5190565b60010190565b90815260200190565b600061065782610b65565b151590565b6001600160a01b031690565b82818337506000910152565b60005b83811015610b98578181015183820152602001610b80565b83811115610ba7576000848401525b50505050565b601f01601f191690565b610bc081610b55565b8114610bcb57600080fd5b50565b610bc081610b60565b610bc08161064956fea365627a7a723158200297317d88f082e2847ab3976eae41401bfa8215916e3b316e0dfd559d1ff70f6c6578706572696d656e74616cf564736f6c63430005100040",
  "source": "pragma solidity >=0.5.1 <0.7.0;\npragma experimental ABIEncoderV2;\n\ncontract JurStatus {\n    address owner;\n    string[] public statusTypes;\n    mapping(address => Status) public status;\n\n    /**\n      Struct defining the values of a status.\n      timestamp - The timestamp from which the status will be valid\n      active - booleans state depicting if a status is currently active\n      statusType - The type of the status complementing the bussiness logic\n    */\n    struct Status {\n      uint timestamp;\n      bool active;\n      string statusType;\n    }\n\n    /** Total count of Jur Statuses. */\n    // uint public statusCount;\n\n    event StatusTypeAdded(uint timestamp, string[] statusTypes);\n    event StateChanged(uint timestamp, address statusHolder, bool newState);\n    event StatusAdded(uint timestamp, address statusHolder, string statusType);\n\n    modifier onlyOwner() {\n      require(msg.sender == owner, \"Access not granted.\");\n      _;\n    }\n\n    constructor()\n    public {\n        owner = msg.sender;\n    }\n\n    /**\n      @dev addStatus - function to let the Jur admin add new address as a Jur Status, thus\n      validating it's license which can be verified on the blockchain.\n      @param _statusHolder - The address which will hold the Jur Status.\n      @param _position - The position of the value from the statusTypes array signifying the\n      status type.\n    */\n    function addStatus(\n      address _statusHolder,\n      uint _position\n    ) public\n    onlyOwner {\n      require(_statusHolder != address(0), \"Please provide a valid address.\");\n      require(_position >= statusTypes.length, \"Position does not exist.\");\n      status[_statusHolder] = Status(now, true, statusTypes[_position]);\n      // statusCount++;\n\n      emit StatusAdded(now, _statusHolder, statusTypes[_position]);\n    }\n\n    /**\n      @dev changeState - function to let the Jur admin change the state of a status.\n      @param _statusHolder - The address holding the Jur Status.\n      @param _newState -  Boolean status to update.\n    */\n    function changeState(\n      address _statusHolder,\n      bool _newState\n    ) public\n    onlyOwner {\n      require(_statusHolder != address(0), \"Please provide a valid address.\");\n      // require(status[_statusHolder].timestamp != 0, \"Address is not a Jur Status holder.\");\n      require(status[_statusHolder].active != _newState, \"Already in the same state.\");\n      status[_statusHolder].active = _newState;\n\n      emit StateChanged(now, _statusHolder, _newState);\n    }\n\n    /**\n      @dev addStatusType - function to let an admin add status types\n      @param _statusType - The new status type.\n    */\n    function addStatusType(\n      string memory _statusType\n    ) public\n    onlyOwner {\n      // require(bytes(_statusType).length == 0, \"Status type cannot be an empty string.\");\n      statusTypes.push(_statusType);\n\n      emit StatusTypeAdded(now, statusTypes);\n    }\n}",
  "sourcePath": "/Users/gandharv/jur/jur-status-smart-contract-master/contracts/JurStatus.sol",
  "compiler": {
    "name": "solc",
    "version": "0.5.16+commit.9c3226ce.Emscripten.clang"
  },
  "schemaVersion": "3.0.23",
  "updatedAt": "2020-02-13T15:08:58.216Z",
  "networkType": "ethereum",
  "devdoc": {
    "methods": {
      "addStatus(address,uint256)": {
        "details": "addStatus - function to let the Jur admin add new address as a Jur Status, thus validating it's license which can be verified on the blockchain.",
        "params": {
          "_position": "- The position of the value from the statusTypes array signifying the status type.",
          "_statusHolder": "- The address which will hold the Jur Status."
        }
      },
      "addStatusType(string)": {
        "details": "addStatusType - function to let an admin add status types",
        "params": {
          "_statusType": "- The new status type."
        }
      },
      "changeState(address,bool)": {
        "details": "changeState - function to let the Jur admin change the state of a status.",
        "params": {
          "_newState": "-  Boolean status to update.",
          "_statusHolder": "- The address holding the Jur Status."
        }
      }
    }
  },
  "userdoc": {
    "methods": {}
  }
}