{
  "contractName": "JurStatus",
  "abi": [
    {
      "inputs": [],
      "payable": false,
      "stateMutability": "nonpayable",
      "type": "constructor"
    },
    {
      "anonymous": false,
      "inputs": [
        {
          "indexed": false,
          "internalType": "uint256",
          "name": "timestamp",
          "type": "uint256"
        },
        {
          "indexed": false,
          "internalType": "address",
          "name": "statusHolder",
          "type": "address"
        },
        {
          "indexed": false,
          "internalType": "bool",
          "name": "newState",
          "type": "bool"
        }
      ],
      "name": "StateChanged",
      "type": "event"
    },
    {
      "anonymous": false,
      "inputs": [
        {
          "indexed": false,
          "internalType": "uint256",
          "name": "timestamp",
          "type": "uint256"
        },
        {
          "indexed": false,
          "internalType": "address",
          "name": "statusHolder",
          "type": "address"
        },
        {
          "indexed": false,
          "internalType": "string",
          "name": "statusType",
          "type": "string"
        }
      ],
      "name": "StatusAdded",
      "type": "event"
    },
    {
      "anonymous": false,
      "inputs": [
        {
          "indexed": false,
          "internalType": "uint256",
          "name": "timestamp",
          "type": "uint256"
        },
        {
          "indexed": false,
          "internalType": "string[]",
          "name": "statusTypes",
          "type": "string[]"
        }
      ],
      "name": "StatusTypeAdded",
      "type": "event"
    },
    {
      "constant": true,
      "inputs": [
        {
          "internalType": "address",
          "name": "",
          "type": "address"
        }
      ],
      "name": "status",
      "outputs": [
        {
          "internalType": "uint256",
          "name": "timestamp",
          "type": "uint256"
        },
        {
          "internalType": "bool",
          "name": "active",
          "type": "bool"
        },
        {
          "internalType": "string",
          "name": "statusType",
          "type": "string"
        }
      ],
      "payable": false,
      "stateMutability": "view",
      "type": "function"
    },
    {
      "constant": true,
      "inputs": [
        {
          "internalType": "uint256",
          "name": "",
          "type": "uint256"
        }
      ],
      "name": "statusTypes",
      "outputs": [
        {
          "internalType": "string",
          "name": "",
          "type": "string"
        }
      ],
      "payable": false,
      "stateMutability": "view",
      "type": "function"
    },
    {
      "constant": false,
      "inputs": [
        {
          "internalType": "address",
          "name": "_statusHolder",
          "type": "address"
        },
        {
          "internalType": "uint256",
          "name": "_position",
          "type": "uint256"
        }
      ],
      "name": "addStatus",
      "outputs": [],
      "payable": false,
      "stateMutability": "nonpayable",
      "type": "function"
    },
    {
      "constant": false,
      "inputs": [
        {
          "internalType": "address",
          "name": "_statusHolder",
          "type": "address"
        },
        {
          "internalType": "bool",
          "name": "_newState",
          "type": "bool"
        }
      ],
      "name": "changeState",
      "outputs": [],
      "payable": false,
      "stateMutability": "nonpayable",
      "type": "function"
    },
    {
      "constant": false,
      "inputs": [
        {
          "internalType": "string",
          "name": "_statusType",
          "type": "string"
        }
      ],
      "name": "addStatusType",
      "outputs": [],
      "payable": false,
      "stateMutability": "nonpayable",
      "type": "function"
    }
  ],
  "bytecode": "0x608060405234801561001057600080fd5b50600080546001600160a01b03191633179055610bb8806100326000396000f3fe608060405234801561001057600080fd5b50600436106100575760003560e01c80630d062d331461005c5780636185e6b414610071578063645b8b1b14610084578063b57bb11d146100af578063eccc2cba146100c2575b600080fd5b61006f61006a3660046106cb565b6100e2565b005b61006f61007f366004610705565b6101e4565b6100976100923660046106a5565b61038d565b6040516100a693929190610a4b565b60405180910390f35b61006f6100bd366004610735565b61043d565b6100d56100d036600461076a565b6104e9565b6040516100a6919061098c565b6000546001600160a01b031633146101155760405162461bcd60e51b815260040161010c906109ad565b60405180910390fd5b6001600160a01b03821661013b5760405162461bcd60e51b815260040161010c906109bd565b6001600160a01b03821660009081526002602052604090206001015460ff161515811515141561017d5760405162461bcd60e51b815260040161010c9061099d565b6001600160a01b03821660009081526002602052604090819020600101805460ff1916831515179055517f13c90fcf39cf981d4758a76f8bef56b85a9ec364c39679ec630f7c7ee38a15fd906101d8904290859085906109cd565b60405180910390a15050565b6000546001600160a01b0316331461020e5760405162461bcd60e51b815260040161010c906109ad565b6001600160a01b0382166102345760405162461bcd60e51b815260040161010c906109bd565b60405180606001604052804281526020016001151581526020016001838154811061025b57fe5b600091825260209182902001805460408051601f60026000196101006001871615020190941693909304928301859004850281018501909152818152928301828280156102e95780601f106102be576101008083540402835291602001916102e9565b820191906000526020600020905b8154815290600101906020018083116102cc57829003601f168201915b5050509190925250506001600160a01b038316600090815260026020818152604092839020845181558482015160018201805460ff191691151591909117905592840151805161034093850192919091019061058f565b509050507f5d45cd4da9d4cf350f53c298c399b2a1215e4611c62b2138baca0512a5e7500442836001848154811061037457fe5b906000526020600020016040516101d8939291906109f5565b600260208181526000928352604092839020805460018083015483860180548851601f60001995831615610100029590950190911697909704928301869004860287018601909752818652919560ff9092169492938301828280156104335780601f1061040857610100808354040283529160200191610433565b820191906000526020600020905b81548152906001019060200180831161041657829003601f168201915b5050505050905083565b6000546001600160a01b031633146104675760405162461bcd60e51b815260040161010c906109ad565b6001805480820180835560009290925282516104aa917fb10e2d527612073b26eecdfd717e6a320cf44b4afac2b0732d9fcbe2b7fa0cf60190602085019061058f565b50507f0ae82ea49ac92c5d3dcca7889353064e9d2ef21573a6b83ec8b974540585c53b4260016040516104de929190610a2b565b60405180910390a150565b600181815481106104f657fe5b600091825260209182902001805460408051601f60026000196101006001871615020190941693909304928301859004850281018501909152818152935090918301828280156105875780601f1061055c57610100808354040283529160200191610587565b820191906000526020600020905b81548152906001019060200180831161056a57829003601f168201915b505050505081565b828054600181600116156101000203166002900490600052602060002090601f016020900481019282601f106105d057805160ff19168380011785556105fd565b828001600101855582156105fd579182015b828111156105fd5782518255916020019190600101906105e2565b5061060992915061060d565b5090565b61062791905b808211156106095760008155600101610613565b90565b803561063581610b4c565b92915050565b803561063581610b63565b600082601f83011261065757600080fd5b813561066a61066582610a9f565b610a78565b9150808252602083016020830185838301111561068657600080fd5b610691838284610b06565b50505092915050565b803561063581610b6c565b6000602082840312156106b757600080fd5b60006106c3848461062a565b949350505050565b600080604083850312156106de57600080fd5b60006106ea858561062a565b92505060206106fb8582860161063b565b9150509250929050565b6000806040838503121561071857600080fd5b6000610724858561062a565b92505060206106fb8582860161069a565b60006020828403121561074757600080fd5b813567ffffffffffffffff81111561075e57600080fd5b6106c384828501610646565b60006020828403121561077c57600080fd5b60006106c3848461069a565b60006107948383610858565b9392505050565b6107a481610aea565b82525050565b60006107b582610ad3565b6107bf8185610ae1565b9350836020820285016107d185610ac7565b8060005b8581101561080a578484038952816107ed8582610788565b94506107f883610adb565b60209a909a01999250506001016107d5565b5091979650505050505050565b6107a481610af5565b600061082b82610ad7565b6108358185610ae1565b9350610845818560208601610b12565b61084e81610b42565b9093019392505050565b600081546001811660008114610875576001811461089b576108da565b607f60028304166108868187610ae1565b60ff19841681529550506020850192506108da565b600282046108a98187610ae1565b95506108b485610ac7565b60005b828110156108d3578154888201526001909101906020016108b7565b8701945050505b505092915050565b60006108ef601a83610ae1565b7f416c726561647920696e207468652073616d652073746174652e000000000000815260200192915050565b6000610928601383610ae1565b7220b1b1b2b9b9903737ba1033b930b73a32b21760691b815260200192915050565b6000610957601f83610ae1565b7f506c656173652070726f7669646520612076616c696420616464726573732e00815260200192915050565b6107a481610627565b602080825281016107948184610820565b60208082528101610635816108e2565b602080825281016106358161091b565b602080825281016106358161094a565b606081016109db8286610983565b6109e8602083018561079b565b6106c36040830184610817565b60608101610a038286610983565b610a10602083018561079b565b8181036040830152610a228184610858565b95945050505050565b60408101610a398285610983565b81810360208301526106c381846107aa565b60608101610a598286610983565b610a666020830185610817565b8181036040830152610a228184610820565b60405181810167ffffffffffffffff81118282101715610a9757600080fd5b604052919050565b600067ffffffffffffffff821115610ab657600080fd5b506020601f91909101601f19160190565b60009081526020902090565b5490565b5190565b60010190565b90815260200190565b600061063582610afa565b151590565b6001600160a01b031690565b82818337506000910152565b60005b83811015610b2d578181015183820152602001610b15565b83811115610b3c576000848401525b50505050565b601f01601f191690565b610b5581610aea565b8114610b6057600080fd5b50565b610b5581610af5565b610b558161062756fea365627a7a72315820d80f740d04c36dc7d45bd966bc9fc20f6075e4cf51faa55f5bea891a68b4d9236c6578706572696d656e74616cf564736f6c63430005100040",
  "source": "pragma solidity >=0.5.1 <0.7.0;\npragma experimental ABIEncoderV2;\n\ncontract JurStatus {\n    address owner;\n    string[] public statusTypes;\n    mapping(address => Status) public status;\n\n    /**\n      Struct defining the values of a status.\n      timestamp - The timestamp from which the status will be valid\n      active - booleans state depicting if a status is currently active\n      statusType - The type of the status complementing the bussiness logic\n    */\n    struct Status {\n      uint timestamp;\n      bool active;\n      string statusType;\n    }\n\n    /** Total count of Jur Statuses. */\n    // uint public statusCount;\n\n    event StatusTypeAdded(uint timestamp, string[] statusTypes);\n    event StateChanged(uint timestamp, address statusHolder, bool newState);\n    event StatusAdded(uint timestamp, address statusHolder, string statusType);\n\n    modifier onlyOwner() {\n      require(msg.sender == owner, \"Access not granted.\");\n      _;\n    }\n\n    constructor()\n    public {\n        owner = msg.sender;\n    }\n\n    /**\n      @dev addStatus - function to let the Jur admin add new address as a Jur Status, thus\n      validating it's license which can be verified on the blockchain.\n      @param _statusHolder - The address which will hold the Jur Status.\n      @param _position - The position of the value from the statusTypes array signifying the\n      status type.\n    */\n    function addStatus(\n      address _statusHolder,\n      uint _position\n    ) public\n    onlyOwner {\n        require(_statusHolder != address(0), \"Please provide a valid address.\");\n        status[_statusHolder] = Status(now, true, statusTypes[_position]);\n        // statusCount++;\n\n        emit StatusAdded(now, _statusHolder, statusTypes[_position]);\n    }\n\n    /**\n      @dev changeState - function to let the Jur admin change the state of a status.\n      @param _statusHolder - The address holding the Jur Status.\n      @param _newState -  Boolean status to update.\n    */\n    function changeState(\n      address _statusHolder,\n      bool _newState\n    ) public\n    onlyOwner {\n        require(_statusHolder != address(0), \"Please provide a valid address.\");\n        // require(status[_statusHolder].timestamp != 0, \"Address is not a Jur Status holder.\");\n        require(status[_statusHolder].active != _newState, \"Already in the same state.\");\n        status[_statusHolder].active = _newState;\n\n        emit StateChanged(now, _statusHolder, _newState);\n    }\n\n    /**\n      @dev addStatusType - function to let an admin add status types\n      @param _statusType - The new status type.\n    */\n    function addStatusType(\n      string memory _statusType\n    ) public\n    onlyOwner {\n        // require(bytes(_statusType).length == 0, \"Status type cannot be an empty string.\");\n        statusTypes.push(_statusType);\n\n        emit StatusTypeAdded(now, statusTypes);\n    }\n}",
  "sourcePath": "/Users/gandharv/jur/jur-status-smart-contract-master/contracts/JurStatus.sol",
  "compiler": {
    "name": "solc",
    "version": "0.5.16+commit.9c3226ce.Emscripten.clang"
  },
  "schemaVersion": "3.0.23",
  "updatedAt": "2020-02-12T22:12:05.053Z",
  "networkType": "ethereum",
  "devdoc": {
    "methods": {
      "addStatus(address,uint256)": {
        "details": "addStatus - function to let the Jur admin add new address as a Jur Status, thus validating it's license which can be verified on the blockchain.",
        "params": {
          "_position": "- The position of the value from the statusTypes array signifying the status type.",
          "_statusHolder": "- The address which will hold the Jur Status."
        }
      },
      "addStatusType(string)": {
        "details": "addStatusType - function to let an admin add status types",
        "params": {
          "_statusType": "- The new status type."
        }
      },
      "changeState(address,bool)": {
        "details": "changeState - function to let the Jur admin change the state of a status.",
        "params": {
          "_newState": "-  Boolean status to update.",
          "_statusHolder": "- The address holding the Jur Status."
        }
      }
    }
  },
  "userdoc": {
    "methods": {}
  }
}