{
  "contractName": "JurStatus",
  "abi": [
    {
      "inputs": [],
      "payable": false,
      "stateMutability": "nonpayable",
      "type": "constructor"
    },
    {
      "anonymous": false,
      "inputs": [
        {
          "indexed": false,
          "internalType": "uint256",
          "name": "timestamp",
          "type": "uint256"
        },
        {
          "indexed": false,
          "internalType": "address",
          "name": "statusHolder",
          "type": "address"
        },
        {
          "indexed": false,
          "internalType": "bool",
          "name": "newState",
          "type": "bool"
        },
        {
          "indexed": false,
          "internalType": "string",
          "name": "notification",
          "type": "string"
        }
      ],
      "name": "StateChanged",
      "type": "event"
    },
    {
      "anonymous": false,
      "inputs": [
        {
          "indexed": false,
          "internalType": "uint256",
          "name": "timestamp",
          "type": "uint256"
        },
        {
          "indexed": false,
          "internalType": "address",
          "name": "statusHolder",
          "type": "address"
        },
        {
          "indexed": false,
          "internalType": "string",
          "name": "statusType",
          "type": "string"
        },
        {
          "indexed": false,
          "internalType": "string",
          "name": "notification",
          "type": "string"
        }
      ],
      "name": "StatusAdded",
      "type": "event"
    },
    {
      "anonymous": false,
      "inputs": [
        {
          "indexed": false,
          "internalType": "uint256",
          "name": "timestamp",
          "type": "uint256"
        },
        {
          "indexed": false,
          "internalType": "bytes32",
          "name": "statusType",
          "type": "bytes32"
        },
        {
          "indexed": false,
          "internalType": "string",
          "name": "notification",
          "type": "string"
        }
      ],
      "name": "StatusTypeAdded",
      "type": "event"
    },
    {
      "constant": true,
      "inputs": [
        {
          "internalType": "address",
          "name": "",
          "type": "address"
        }
      ],
      "name": "status",
      "outputs": [
        {
          "internalType": "uint256",
          "name": "timestamp",
          "type": "uint256"
        },
        {
          "internalType": "bool",
          "name": "active",
          "type": "bool"
        },
        {
          "internalType": "bytes32",
          "name": "statusType",
          "type": "bytes32"
        }
      ],
      "payable": false,
      "stateMutability": "view",
      "type": "function"
    },
    {
      "constant": true,
      "inputs": [
        {
          "internalType": "uint256",
          "name": "",
          "type": "uint256"
        }
      ],
      "name": "statusTypes",
      "outputs": [
        {
          "internalType": "bytes32",
          "name": "name",
          "type": "bytes32"
        }
      ],
      "payable": false,
      "stateMutability": "view",
      "type": "function"
    },
    {
      "constant": false,
      "inputs": [
        {
          "internalType": "address",
          "name": "_statusHolder",
          "type": "address"
        },
        {
          "internalType": "uint256",
          "name": "_position",
          "type": "uint256"
        }
      ],
      "name": "addStatus",
      "outputs": [],
      "payable": false,
      "stateMutability": "nonpayable",
      "type": "function"
    },
    {
      "constant": false,
      "inputs": [
        {
          "internalType": "address",
          "name": "_statusHolder",
          "type": "address"
        },
        {
          "internalType": "bool",
          "name": "_newState",
          "type": "bool"
        }
      ],
      "name": "changeState",
      "outputs": [],
      "payable": false,
      "stateMutability": "nonpayable",
      "type": "function"
    },
    {
      "constant": false,
      "inputs": [
        {
          "internalType": "bytes32",
          "name": "_statusType",
          "type": "bytes32"
        }
      ],
      "name": "addStatusType",
      "outputs": [],
      "payable": false,
      "stateMutability": "nonpayable",
      "type": "function"
    }
  ],
  "bytecode": "0x608060405234801561001057600080fd5b50600080546001600160a01b031916331790556105b0806100326000396000f3fe608060405234801561001057600080fd5b50600436106100575760003560e01c80630d062d331461005c5780636185e6b41461008c578063645b8b1b146100b8578063a74fc621146100fc578063eccc2cba14610119575b600080fd5b61008a6004803603604081101561007257600080fd5b506001600160a01b0381351690602001351515610148565b005b61008a600480360360408110156100a257600080fd5b506001600160a01b03813516906020013561030d565b6100de600480360360208110156100ce57600080fd5b50356001600160a01b0316610438565b60408051938452911515602084015282820152519081900360600190f35b61008a6004803603602081101561011257600080fd5b503561045e565b6101366004803603602081101561012f57600080fd5b503561055d565b60408051918252519081900360200190f35b6000546001600160a01b0316331461019d576040805162461bcd60e51b815260206004820152601360248201527220b1b1b2b9b9903737ba1033b930b73a32b21760691b604482015290519081900360640190fd5b6001600160a01b0382166101f8576040805162461bcd60e51b815260206004820152601f60248201527f506c656173652070726f7669646520612076616c696420616464726573732e00604482015290519081900360640190fd5b6001600160a01b0382166000908152600160208190526040909120015460ff1615158115151415610270576040805162461bcd60e51b815260206004820152601a60248201527f416c726561647920696e207468652073616d652073746174652e000000000000604482015290519081900360640190fd5b6001600160a01b038216600081815260016020818152604092839020909101805485151560ff19909116811790915582514281529182019390935280820192909252608060608301819052601490830152731058dd1a5d99481cdd185d194818da185b99d95960621b60a0830152517f44959fe8dadb58f87f776e3ba2c02a1a156df0148070559d2c6e68bb640291cd9181900360c00190a15050565b6000546001600160a01b03163314610362576040805162461bcd60e51b815260206004820152601360248201527220b1b1b2b9b9903737ba1033b930b73a32b21760691b604482015290519081900360640190fd5b6001600160a01b0382166103bd576040805162461bcd60e51b815260206004820152601f60248201527f506c656173652070726f7669646520612076616c696420616464726573732e00604482015290519081900360640190fd5b6040518060600160405280428152602001600115158152602001600283815481106103e457fe5b60009182526020808320909101549092526001600160a01b03909416845260018082526040948590208351815591830151908201805491151560ff1990921691909117905592015160029092019190915550565b600160208190526000918252604090912080549181015460029091015460ff9091169083565b6000546001600160a01b031633146104b3576040805162461bcd60e51b815260206004820152601360248201527220b1b1b2b9b9903737ba1033b930b73a32b21760691b604482015290519081900360640190fd5b60408051602080820183528382526002805460018101825560009190915291517f405787fa12a823e0f2b7631cc41b3ba8828b3321ca811111fa75cd3aa3bb5ace90920191909155815142815290810183905260608183018190526011908201527014dd185d1d5cc81d1e5c19481859191959607a1b608082015290517ff636d2f427410dd5a932771eda99662177d35da5c5af2238cd95653c9de635619181900360a00190a150565b6002818154811061056a57fe5b60009182526020909120015490508156fea265627a7a7231582011d21b0b09b0afbb5f7f54d7292937a886fce9cf0e99f4ea34323f699badcd8864736f6c63430005100032",
  "source": "pragma solidity >=0.5.1 <0.7.0;\n// pragma experimental ABIEncoderV2;\n\ncontract JurStatus {\n    // Represents a single status.\n    struct Status {\n      uint timestamp; // timestamp from which the status will be valid\n      bool active; // boolean state depicting if a status is currently active\n      bytes32 statusType; // the type of the status\n    }\n\n    // This is a type for a single status-type.\n    struct Type {\n      bytes32 name; // short name (up to 32 bytes)\n    }\n\n    address owner;\n\n    // This declares a state variable - status that\n    // stores a `Status` struct for each possible address.\n    mapping(address => Status) public status;\n\n    // string[] public statusTypes;\n\n    // A dynamically-sized array of `Type` structs.\n    Type[] public statusTypes;\n\n\n    /** Total count of Jur Statuses. */\n    // uint public statusCount;\n\n    // event Logger(string s, string[] u);\n    event StatusTypeAdded(uint timestamp, bytes32 statusType, string notification);\n    event StateChanged(uint timestamp, address statusHolder, bool newState, string notification);\n    event StatusAdded(uint timestamp, address statusHolder, string statusType, string notification);\n\n    modifier onlyOwner() {\n      require(msg.sender == owner, \"Access not granted.\");\n      _;\n    }\n\n    constructor()\n    public {\n      owner = msg.sender;\n    }\n\n    /**\n      @dev addStatus - function to let the Jur admin add new address as a Jur Status, thus\n      validating it's license which can be verified on the blockchain.\n      @param _statusHolder - The address which will hold the Jur Status.\n      @param _position - The position of the value from the statusTypes array signifying the\n      status type.\n    */\n    function addStatus(\n      address _statusHolder,\n      uint _position\n    ) public\n    onlyOwner {\n      require(_statusHolder != address(0), \"Please provide a valid address.\");\n      // require(statusTypes.length == 0, \"Empty.\");\n      // require(_position >= statusTypes.length, \"Position does not exist.\");\n      status[_statusHolder] = Status(now, true, statusTypes[_position].name);\n      // statusCount++;\n\n      // emit StatusAdded(now, _statusHolder, statusTypes[_position], \"Status added\");\n    }\n\n    /**\n      @dev changeState - function to let the Jur admin change the state of a status.\n      @param _statusHolder - The address holding the Jur Status.\n      @param _newState -  Boolean status to update.\n    */\n    function changeState(\n      address _statusHolder,\n      bool _newState\n    ) public\n    onlyOwner {\n      require(_statusHolder != address(0), \"Please provide a valid address.\");\n      // require(status[_statusHolder].timestamp != 0, \"Address is not a Jur Status holder.\");\n      require(status[_statusHolder].active != _newState, \"Already in the same state.\");\n      status[_statusHolder].active = _newState;\n\n      emit StateChanged(now, _statusHolder, _newState, \"Active state changed\");\n    }\n\n    /**\n      @dev addStatusType - function to let an admin add status types\n      @param _statusType - The new status type.\n    */\n    function addStatusType(\n      bytes32 _statusType\n    ) public\n    onlyOwner {\n      // require(bytes(_statusType).length == 0, \"Status type cannot be an empty string.\");\n\n      // `Type({...})` creates a temporary\n      // Type object and `statusTypes.push(...)`\n      // appends it to the end of `statusTypes`.\n      statusTypes.push(Type(_statusType));\n\n      emit StatusTypeAdded(now, _statusType, \"Status type added\");\n    }\n}",
  "sourcePath": "/Users/gandharv/jur/jur-status-smart-contract-master/contracts/JurStatus.sol",
  "compiler": {
    "name": "solc",
    "version": "0.5.16+commit.9c3226ce.Emscripten.clang"
  },
  "schemaVersion": "3.0.23",
  "updatedAt": "2020-02-15T12:09:26.115Z",
  "networkType": "ethereum",
  "devdoc": {
    "methods": {
      "addStatus(address,uint256)": {
        "details": "addStatus - function to let the Jur admin add new address as a Jur Status, thus validating it's license which can be verified on the blockchain.",
        "params": {
          "_position": "- The position of the value from the statusTypes array signifying the status type.",
          "_statusHolder": "- The address which will hold the Jur Status."
        }
      },
      "addStatusType(bytes32)": {
        "details": "addStatusType - function to let an admin add status types",
        "params": {
          "_statusType": "- The new status type."
        }
      },
      "changeState(address,bool)": {
        "details": "changeState - function to let the Jur admin change the state of a status.",
        "params": {
          "_newState": "-  Boolean status to update.",
          "_statusHolder": "- The address holding the Jur Status."
        }
      }
    }
  },
  "userdoc": {
    "methods": {}
  }
}