{
  "contractName": "JurStatus",
  "abi": [
    {
      "inputs": [],
      "payable": false,
      "stateMutability": "nonpayable",
      "type": "constructor"
    },
    {
      "anonymous": false,
      "inputs": [
        {
          "indexed": false,
          "internalType": "address",
          "name": "statusHolder",
          "type": "address"
        },
        {
          "indexed": false,
          "internalType": "bool",
          "name": "newState",
          "type": "bool"
        },
        {
          "indexed": false,
          "internalType": "uint256",
          "name": "timestamp",
          "type": "uint256"
        }
      ],
      "name": "StateChanged",
      "type": "event"
    },
    {
      "anonymous": false,
      "inputs": [
        {
          "indexed": false,
          "internalType": "address",
          "name": "statusHolder",
          "type": "address"
        },
        {
          "indexed": false,
          "internalType": "uint256",
          "name": "activationTime",
          "type": "uint256"
        },
        {
          "indexed": false,
          "internalType": "string",
          "name": "statusType",
          "type": "string"
        }
      ],
      "name": "StatusAdded",
      "type": "event"
    },
    {
      "constant": true,
      "inputs": [
        {
          "internalType": "address",
          "name": "",
          "type": "address"
        }
      ],
      "name": "status",
      "outputs": [
        {
          "internalType": "uint256",
          "name": "activationTime",
          "type": "uint256"
        },
        {
          "internalType": "bool",
          "name": "isActive",
          "type": "bool"
        },
        {
          "internalType": "string",
          "name": "statusType",
          "type": "string"
        }
      ],
      "payable": false,
      "stateMutability": "view",
      "type": "function"
    },
    {
      "constant": true,
      "inputs": [],
      "name": "statusCount",
      "outputs": [
        {
          "internalType": "uint256",
          "name": "",
          "type": "uint256"
        }
      ],
      "payable": false,
      "stateMutability": "view",
      "type": "function"
    },
    {
      "constant": true,
      "inputs": [
        {
          "internalType": "uint256",
          "name": "",
          "type": "uint256"
        }
      ],
      "name": "statusTypes",
      "outputs": [
        {
          "internalType": "string",
          "name": "",
          "type": "string"
        }
      ],
      "payable": false,
      "stateMutability": "view",
      "type": "function"
    },
    {
      "constant": false,
      "inputs": [
        {
          "internalType": "address",
          "name": "_statusHolder",
          "type": "address"
        },
        {
          "internalType": "uint256",
          "name": "_statusType",
          "type": "uint256"
        }
      ],
      "name": "addJurStatus",
      "outputs": [],
      "payable": false,
      "stateMutability": "nonpayable",
      "type": "function"
    },
    {
      "constant": false,
      "inputs": [
        {
          "internalType": "address",
          "name": "_statusHolder",
          "type": "address"
        },
        {
          "internalType": "bool",
          "name": "_newState",
          "type": "bool"
        }
      ],
      "name": "changeState",
      "outputs": [],
      "payable": false,
      "stateMutability": "nonpayable",
      "type": "function"
    },
    {
      "constant": false,
      "inputs": [
        {
          "internalType": "string",
          "name": "_statusType",
          "type": "string"
        }
      ],
      "name": "addStatusType",
      "outputs": [],
      "payable": false,
      "stateMutability": "nonpayable",
      "type": "function"
    }
  ],
  "bytecode": "0x608060405234801561001057600080fd5b50600080546001600160a01b03191633179055610aaa806100326000396000f3fe608060405234801561001057600080fd5b50600436106100625760003560e01c80630d062d331461006757806311d920101461009757806337cb4e2c146100c3578063645b8b1b146100dd578063b57bb11d1461018d578063eccc2cba14610233575b600080fd5b6100956004803603604081101561007d57600080fd5b506001600160a01b03813516906020013515156102c5565b005b610095600480360360408110156100ad57600080fd5b506001600160a01b0381351690602001356104ac565b6100cb61075b565b60408051918252519081900360200190f35b610103600480360360208110156100f357600080fd5b50356001600160a01b0316610761565b604051808481526020018315151515815260200180602001828103825283818151815260200191508051906020019080838360005b83811015610150578181015183820152602001610138565b50505050905090810190601f16801561017d5780820380516001836020036101000a031916815260200191505b5094505050505060405180910390f35b610095600480360360208110156101a357600080fd5b8101906020810181356401000000008111156101be57600080fd5b8201836020820111156101d057600080fd5b803590602001918460018302840111640100000000831117156101f257600080fd5b91908080601f016020809104026020016040519081016040528093929190818152602001838380828437600092019190915250929550610811945050505050565b6102506004803603602081101561024957600080fd5b50356108eb565b6040805160208082528351818301528351919283929083019185019080838360005b8381101561028a578181015183820152602001610272565b50505050905090810190601f1680156102b75780820380516001836020036101000a031916815260200191505b509250505060405180910390f35b6000546001600160a01b0316331461031a576040805162461bcd60e51b815260206004820152601360248201527220b1b1b2b9b9903737ba1033b930b73a32b21760691b604482015290519081900360640190fd5b6001600160a01b038216610375576040805162461bcd60e51b815260206004820152601e60248201527f506c6561652070726f7669646520612076616c696420616464726573732e0000604482015290519081900360640190fd5b6001600160a01b0382166000908152600260205260409020546103c95760405162461bcd60e51b8152600401808060200182810382526023815260200180610a536023913960400191505060405180910390fd5b6001600160a01b03821660009081526002602052604090206001015460ff1615158115151415610440576040805162461bcd60e51b815260206004820152601d60248201527f416c726561647920696e207468652073696d696c61722073746174652e000000604482015290519081900360640190fd5b6001600160a01b038216600081815260026020908152604091829020600101805485151560ff1990911681179091558251938452908301524282820152517fb965fe859adbfcaf277bb9d21a5de534aa40f5a06a58dbf224de25d789b063a99181900360600190a15050565b6000546001600160a01b03163314610501576040805162461bcd60e51b815260206004820152601360248201527220b1b1b2b9b9903737ba1033b930b73a32b21760691b604482015290519081900360640190fd5b6001600160a01b03821661055c576040805162461bcd60e51b815260206004820152601f60248201527f506c656173652070726f7669646520612076616c696420616464726573732e00604482015290519081900360640190fd5b60405180606001604052804281526020016001151581526020016001838154811061058357fe5b600091825260209182902001805460408051601f60026000196101006001871615020190941693909304928301859004850281018501909152818152928301828280156106115780601f106105e657610100808354040283529160200191610611565b820191906000526020600020905b8154815290600101906020018083116105f457829003601f168201915b5050509190925250506001600160a01b038316600090815260026020818152604092839020845181558482015160018201805460ff1916911515919091179055928401518051610668938501929190910190610991565b505060038054600190810190915580547fc4d9fcc4d32e8979ac4dd0d6eebc63fbf139c5419a5184ec6cf7b2d0f876024b925084914291859081106106a957fe5b6000918252602091829020604080516001600160a01b038716815293840185905260609084018181529190920180546002600019610100600184161502019091160492840183905292916080830190849080156107475780601f1061071c57610100808354040283529160200191610747565b820191906000526020600020905b81548152906001019060200180831161072a57829003601f168201915b505094505050505060405180910390a15050565b60035481565b600260208181526000928352604092839020805460018083015483860180548851601f60001995831615610100029590950190911697909704928301869004860287018601909752818652919560ff9092169492938301828280156108075780601f106107dc57610100808354040283529160200191610807565b820191906000526020600020905b8154815290600101906020018083116107ea57829003601f168201915b5050505050905083565b6000546001600160a01b03163314610866576040805162461bcd60e51b815260206004820152601360248201527220b1b1b2b9b9903737ba1033b930b73a32b21760691b604482015290519081900360640190fd5b80516108a35760405162461bcd60e51b8152600401808060200182810382526026815260200180610a2d6026913960400191505060405180910390fd5b6001805480820180835560009290925282516108e6917fb10e2d527612073b26eecdfd717e6a320cf44b4afac2b0732d9fcbe2b7fa0cf601906020850190610991565b505050565b600181815481106108f857fe5b600091825260209182902001805460408051601f60026000196101006001871615020190941693909304928301859004850281018501909152818152935090918301828280156109895780601f1061095e57610100808354040283529160200191610989565b820191906000526020600020905b81548152906001019060200180831161096c57829003601f168201915b505050505081565b828054600181600116156101000203166002900490600052602060002090601f016020900481019282601f106109d257805160ff19168380011785556109ff565b828001600101855582156109ff579182015b828111156109ff5782518255916020019190600101906109e4565b50610a0b929150610a0f565b5090565b610a2991905b80821115610a0b5760008155600101610a15565b9056fe53746174757320747970652063616e6e6f7420626520616e20656d70747920737472696e672e41646472657373206973206e6f742061204a75722053746174757320686f6c6465722ea265627a7a72315820de78d4344bdd807cfe13cd47640590fc75b148799e3315e35429cf7e001377de64736f6c63430005100032",
  "source": "pragma solidity >=0.5.1 <0.7.0;\n\ncontract JurStatus {\n    /** The Jur admin address */\n    address owner;\n\n    /**\n    Struct defining the values of a status.\n    activationTime - The timestamp from which the status will be valid\n    isActive - booleans state depicting if a status is currently valid\n    statusType - The type of the status complementing the bussiness logic\n    */\n    struct Status {\n        uint activationTime;\n        bool isActive;\n        string statusType;\n    }\n\n    /** Dynamic array holding the status types */\n    string[] public statusTypes;\n\n    /** Mapping between the address of the Jur Status holders and their properties */\n    mapping(address  => Status) public status;\n\n    /** Total count of Jur Statuses. */\n    uint public statusCount;\n\n    event StateChanged(address statusHolder, bool newState, uint timestamp);\n    event StatusAdded(address statusHolder, uint activationTime, string statusType);\n\n    modifier onlyOwner() {\n        require(msg.sender == owner, \"Access not granted.\");\n        _;\n    }\n\n    constructor()\n    public {\n        owner = msg.sender;\n    }\n\n    /**\n    @dev addJurStatus - function to let the Jur admin add new address as a Jur Status, thus\n    validating it's license which can be verified on the blockchain.\n    @param _statusHolder - The address which will hold the Jur Status.\n    @param _statusType - The position of the value from the statusTypes array signifying the\n    status type.\n    */\n    function addJurStatus(\n    address _statusHolder,\n    uint _statusType\n    ) public\n    onlyOwner {\n        require(_statusHolder != address(0), \"Please provide a valid address.\");\n        status[_statusHolder] = Status(now, true, statusTypes[_statusType]);\n        statusCount++;\n\n        emit StatusAdded(_statusHolder, now, statusTypes[_statusType]);\n    }\n\n    /**\n    @dev changeState - function to let the Jur admin change the state of a status.\n    @param _statusHolder - The address holding the Jur Status.\n    @param _newState -  Boolean status to update.\n    */\n    function changeState(\n    address _statusHolder,\n    bool _newState\n    ) public\n    onlyOwner {\n        require(_statusHolder != address(0), \"Pleae provide a valid address.\");\n        require(status[_statusHolder].activationTime != 0, \"Address is not a Jur Status holder.\");\n        require(status[_statusHolder].isActive != _newState, \"Already in the similar state.\");\n        status[_statusHolder].isActive = _newState;\n\n        emit StateChanged(_statusHolder, _newState, now);\n    }\n\n    /**\n    @dev addStatusType - function to let an admin add status types to support the bussiness\n    logic.\n    @param _statusType - The new status type.\n    */\n    function addStatusType(\n    string memory _statusType\n    ) public\n    onlyOwner {\n        require(bytes(_statusType).length != 0, \"Status type cannot be an empty string.\");\n        statusTypes.push(_statusType);\n    }\n}",
  "sourcePath": "/Users/gandharv/jur/jur-status-smart-contract-master/contracts/JurStatus.sol",
  "compiler": {
    "name": "solc",
    "version": "0.5.16+commit.9c3226ce.Emscripten.clang"
  },
  "schemaVersion": "3.0.23",
  "updatedAt": "2020-02-10T20:42:20.265Z",
  "networkType": "ethereum",
  "devdoc": {
    "methods": {
      "addJurStatus(address,uint256)": {
        "details": "addJurStatus - function to let the Jur admin add new address as a Jur Status, thus validating it's license which can be verified on the blockchain.",
        "params": {
          "_statusHolder": "- The address which will hold the Jur Status.",
          "_statusType": "- The position of the value from the statusTypes array signifying the status type."
        }
      },
      "addStatusType(string)": {
        "details": "addStatusType - function to let an admin add status types to support the bussiness logic.",
        "params": {
          "_statusType": "- The new status type."
        }
      },
      "changeState(address,bool)": {
        "details": "changeState - function to let the Jur admin change the state of a status.",
        "params": {
          "_newState": "-  Boolean status to update.",
          "_statusHolder": "- The address holding the Jur Status."
        }
      }
    }
  },
  "userdoc": {
    "methods": {}
  }
}